:020000040800F2
:1000000068440020A9020008C7550008BD51000837
:10001000C5550008FD220008097B0008000000000B
:10002000000000000000000000000000BB610008AC
:1000300001240008000000007D560008BD61000892
:10004000C3020008C3020008C3020008C30200087C
:10005000C3020008C3020008C3020008C30200086C
:10006000C3020008C30200080B240008C3020008F2
:10007000C3020008C3020008C3020008C30200084C
:10008000C3020008C3020008C30200080000000009
:10009000000000000000000000000000C302000893
:1000A000C3020008C3020008C3020008C30200081C
:1000B000C3020008C3020008C3020008C30200080C
:1000C000C3020008C3020008C3020008C3020008FC
:1000D000C3020008E9650008C30200080000000030
:1000E00003240008C3020008C30200080000000047
:1000F000000000000000000000000000C302000833
:10010000000000001D570008C3020008C3020008D9
:1001100000000000000000000000000000000000DF
:10012000C3020008C3020008C3020008C30200089B
:10013000C3020008000000000000000000000000F2
:10014000000000000000000000000000E955000869
:10015000C3020008C302000879230008C302000894
:10016000C3020008C30200080000000000000000F5
:10017000000000000000000000000000000000007F
:1001800000000000C30200080000000000000000A2
:10019000C302000800F002F800F076F80AA090E828
:1001A000000C82448344AAF10107DA4501D100F032
:1001B0006BF8AFF2090EBAE80F0013F0010F18BF89
:1001C000FB1A43F0010318474CC800006CC800003C
:1001D0000A444FF0000C10F8013B13F0070408BF6D
:1001E00010F8014B1D1108BF10F8015B641E05D00B
:1001F00010F8016B641E01F8016BF9D113F0080FC0
:100200001EBF10F8014BAD1C0C1B09D16D1E58BF51
:1002100001F801CBFAD505E014F8016B01F8016B88
:100220006D1EF9D59142D6D37047000000230024FB
:1002300000250026103A28BF78C1FBD8520728BFF6
:1002400030C148BF0B60704766290BF0E78764290F
:1002500000F08481002070471FB50BF0DAFF9DE8A5
:10026000030000F069FB00F039FE040000200021CB
:100270000BF042FFE06000F04FFF00F02FFB1FBDCE
:1002800010B500F0B2FF10BD00F0E9FF1146FFF716
:10029000E3FF0AF0E1FA01F0B1F903B4FFF7F0FF70
:1002A00003BC01F03CFF00000948804709480047B3
:1002B000FEE7FEE7FEE7FEE7FEE7FEE7FEE7FEE716
:1002C000FEE7FEE704480549054A064B7047000073
:1002D000CD610008950100086814002068440020E2
:1002E0006824002068240020704770B5064600F09E
:1002F00007FB056806F10B0020F00704B4429CBF21
:10030000002070BD2B466A68BAB11068A04210D3B5
:1003100004F1080188423CBF5068586007D3516817
:10032000101941601168091B016058601460101DAC
:1003300070BD13465268002AE7D12146284600F0D6
:10034000E7FA0028DED170BD70B50446051F00F045
:10035000D7FA0068002C14BF446870BD002C18BF89
:10036000AC423CBF20466468F8D301680A18AA4230
:1003700018BF456003D12A6805461144016028680A
:100380004119A1421CBF6C6070BD61686960216841
:100390000844286070BD53EA020C00F069802DE922
:1003A000F04B4FF00006002B1FBFB3FA83F503FAA2
:1003B00005F424FA05F65E4012BF1643B2FA82F540
:1003C00002FA05F4C5F120051EBF22FA05FC44EA35
:1003D0000C04203556EA044C4FEA144418BF641C40
:1003E0004FF000084FF00009904271EB030C39D335
:1003F000002919BFB1FA81F701FA07F6B0FA80F7C0
:1004000000FA07F6C7F120071EBF20FA07FC46EAEC
:100410000C062037B6FBF4FCA7EB0507103F07F0EE
:100420001F0BCBF120060CFA0BFB2CFA06F644BF8F
:10043000B3460026202FA4BF5E464FF0000B5BEAB8
:10044000060C08BF4FF0010B19EB0B09ABFB027C4C
:1004500048EB0608C01B06FB02CC0BFB03CC71EB80
:100460000C01C1E70B46024641464846BDE8F08B09
:1004700013B54FF000004FF00001AFF30080BDE86E
:100480001C40704710B54C1084EA530404D5404218
:10049000C1F1000138BF491E1B4204D55242C3F1CD
:1004A000000338BF5B1EFFF776FF14F0804F04D0C7
:1004B0004042C1F1000138BF491E14F0004F04D082
:1004C0005242C3F1000338BF5B1E10BD0FB4044994
:1004D00010B503AA029800F0EBFC10BC5DF814FB09
:1004E000601300200FB41CB5074B06AA7B44694675
:1004F0000090059800F0C3FC0020694600F0D2FC93
:100500001CBC5DF814FB0000B509000070B5044682
:1005100085690068C10601D5302600E02026C007A5
:1005200007D070BDD4E9012130469047206A401CB5
:1005300020626D1EF6D570BD70B5044685690078E1
:10054000C00707D170BDD4E9012120209047206A5F
:10055000401C20626D1EF6D570BD00002DE9F041F3
:100560000646002410687529314616A510D0AFF351
:100570000080002802DA404213A507E031688A07AC
:1005800001D512A502E0490704D511A5012401E017
:10059000AFF3008000210A2206F1240709E0B0FB36
:1005A000F2FCB0FBF2F302FB1C003030785418462A
:1005B000491C0028F3D123462A463046BDE8F041C5
:1005C00000F0F0B9000000002D0000002B0000003A
:1005D000200000002DE9F05F894604464FF0000A34
:1005E000DFF874B1FB44C0F820A02046E1688847DA
:1005F000002874D0252806D0D4E901219047206A2C
:10060000401C2062F1E700265F462046E1688847EB
:100610002028054607DB312D05D2781910F8200C6B
:1006200008B10643F1E7B00701D526F00406C4F887
:100630001CA00027C4F818A02A2D09D0284607F0CE
:10064000D3FE38B304EB8708303DC8F8185019E0E2
:1006500059F8041B204604EB87029161E168884742
:10066000012F054618D1E069002820DA26F020067F
:100670001DE0D8F8180000EB800005EB4000303892
:10068000C8F818002046E1688847054607F0ACFE28
:100690000028EED1012F0AD02E2D08D12046E16886
:1006A00088477F1C0546022F46F02006C4DBA06960
:1006B000002803DA404246F00106A061F00701D0AD
:1006C00026F010066C2D0BD0682D09D04C2D39D09A
:1006D0006A2D35D0742D35D07A2D33D016E038E020
:1006E000E1682F4620468847B842054609D16C2F5D
:1006F00026D04FF48060E1680643204688470546CF
:1007000004E06C2F1AD04FF4807006430DB3A5F1AE
:100710004100192802D8203546F400664A46294689
:10072000204626604E46FFF78FFD80B101280BD092
:10073000F61D26F0070000F1080956E74020E4E71F
:100740008020D8E70020D6E706F104094DE72846C7
:1007500052E7206ABDE8F09F2CC3000010B5431C8F
:1007600002E010F8011B71B18107FAD14FF001329C
:1007700002C88C1A8C4314EAC211F9D0C01A0A06B6
:1007800003D0C01E10BDC01A10BD0A0401D0801EC7
:1007900010BD0902FCD0401E10BD032A40F230807B
:1007A00010F0030C00F0158011F8013BBCF1020FB2
:1007B000624498BF11F801CB00F8013B38BF11F833
:1007C000013BA2F1040298BF00F801CB38BF00F84A
:1007D000013B11F0030300F02580083AC0F00880C7
:1007E00051F8043B083A51F804CBA0E80810F5E7AB
:1007F000121D5CBF51F8043B40F8043BAFF300808E
:10080000D20724BF11F8013B11F801CB48BF11F802
:10081000012B24BF00F8013B00F801CB48BF00F8D2
:10082000012B704710B5203AC0F00B80B1E818508A
:10083000203AA0E81850B1E81850A0E81850BFF4CA
:10084000F5AF5FEA027C24BFB1E81850A0E8185069
:1008500044BF18C918C0BDE810405FEA827C24BFBD
:1008600051F8043B40F8043B08BF7047D20728BF4B
:1008700031F8023B48BF11F8012B28BF20F8023B9A
:1008800048BF00F8012B70474FF0000200B5134637
:1008900094469646203922BFA0E80C50A0E80C50A0
:1008A000B1F12001BFF4F7AF090728BFA0E80C5051
:1008B00048BF0CC05DF804EB890028BF40F8042B4A
:1008C00008BF704748BF20F8022B11F0804F18BFB7
:1008D00000F8012B704770477047704770B5064CA1
:1008E0007C44064D7D4403E0206820448047241D5D
:1008F000AC42F9D170BD00006CC100006CC10000B9
:1009000000487047101400207047704770477047C8
:1009100038B504460A4600206946AFF30080002837
:1009200008BF38BD02460099204600F0DFFA0120DA
:1009300038BD012000F08CBCF8B5AFF3008005464F
:1009400000200C46102000BF0646A819A0420DD971
:10095000324669460020AFF30080070008BF00F070
:1009600077FC0098A04218BF0546C419FFF7C8FFDE
:1009700005600746F01D20F007004619284600F0E4
:100980000AF8B44208BFF8BDA21B31463868BDE87A
:10099000F84000F0ABBA00210160C0E901107047D7
:1009A000102070472DE9F0470D46994692460446BF
:1009B00000F124080168880604D5E06921F01001DF
:1009C000216000E00120A84201DD471B00E0002774
:1009D000A1697A1902EB0900081AA0612078C00603
:1009E00002D42046FFF792FD002608E0D4E9012159
:1009F0001AF806009047206A401C761C20624E457B
:100A0000F4DB2078C0060AD52046FFF77FFD06E01C
:100A1000D4E9012130209047206A401C2062381E12
:100A2000A7F10107F4DC07E0D4E9012118F805007B
:100A30009047206A401C2062281EA5F10105F3DCC6
:100A40002046FFF779FD2078000602D50220BDE898
:100A5000F0870120FBE770472DE9FF4F0C461E464B
:100A60004FF0FF378BB0D2E90001DDF860800A90CB
:100A70008A46C1F30A5505B93D46002108464FF0A4
:100A80000000BAF1000F00F4400005DA00EB80002E
:100A90004FF4400101EA50004FEA9059B9F1010FBB
:100AA00000DDB9460A9850EA4A000ED044F61050CC
:100AB000A5F2FF3545432F14B8F1000F1ED0754243
:100AC000291E1EDDC9F100021CE0B8F1010F4FF034
:100AD000000001D0302103E0F24305E02154401C26
:100AE000B042FBDB30460022002121540B99C1F8B3
:100AF0000880C1E900200FB0BDE8F08FBD1B6D1C60
:100B0000DEE74A4600DA694206A800F08FFA06AB33
:100B100093E8070003AB83E8070050460A9900F00A
:100B200034FF8DE80700A0F500501F3800900398AF
:100B3000002D0ADD42F21F014A460844002303A9A2
:100B40000390684601F09DF909E0A0F500504A467F
:100B50001F38002303A90390684601F0A7F98DE828
:100B600007000004000C03D04FF0FF30410800E004
:100B70001046B8F1000F03D00022009215461EE087
:100B8000751E05D400F0CCF9303262556D1EF9D5D2
:100B9000B3460122084302D000227F1C04E02078E3
:100BA000302801D100227F1E002A099784D01DE041
:100BB000112D07DA00F0B4F9303262556D1C50EA9D
:100BC0000102F5D1084302D00098C8B10EE000211F
:100BD000681E05E0235C625C63542254401E491C7D
:100BE0008142F7DBAB46A81B401E0990002004F8A9
:100BF0000B000B98099AC0F80880C0E9002B7AE72F
:100C000011264FF0000857E72DE9F04F88460446BB
:100C1000D21D22F0070191B0D1E90001CDE90A010E
:100C200007F0C4FB02460B98C00F01D02D2007E04F
:100C30002068810701D52B2002E0202101EAC000B5
:100C4000032A099001D0072A05DB034641462046C6
:100C500000F0ACF90BE12078800601D5E06900E0F6
:100C60000620B8F1650F814606D0B8F1660F18D09E
:100C7000B8F1670F70D131E00020B9F1110F009089
:100C800001DB112301E009F101030AAA01A90CA863
:100C9000FFF7E2FEDDE90C70002609F1010583464D
:100CA00047E001204B4600904FF000470AAA01A9F7
:100CB0000CA8FFF7D1FEDDE90DB00C995D460026CA
:100CC00010B909F101000D18B9EB050003D4C0F10A
:100CD000FF3609F10105A5EB09002BE0B9F1010F81
:100CE00001DA4FF001090020B9F1110F00904846D8
:100CF00001DD112300E003460AAA01A90CA8FFF7B1
:100D0000ABFEDDE90C704D460026834620780007D7
:100D10000AD4AB4500DA5D4601A8012D04DD411976
:100D200011F8011C302907D04F4502DA17F1040FE2
:100D300004DA012082460FE06D1EEEE7002F02DC90
:100D4000ED1B3E4403E0781CA84200DD7D1CB81B6F
:100D500000F1010A4FF000472078000703D4AA45AC
:100D600001DB4FF0FF3A0021B7F1004F0DF14308CE
:100D70008DF8431024D002202B23002F01DA7F426C
:100D80002D230A21021EA0F1010000DC5FB197FBB8
:100D9000F1FC97FBF1F201FB1C7C17460CF1300CC7
:100DA00008F801CDEEE7A8F10100037021880905DC
:100DB00001D5452100E06521A0F1010800F8011CE2
:100DC00009980FA9A1EB0807FF1D00B101204119E7
:100DD00001EBEA70A1693844081A401EA06120782E
:100DE000C00602D42046FFF791FB099828B1D4E948
:100DF00001219047206A401C20622078C00622D53D
:100E00002046FFF783FB1EE0002E04DBB34502DD26
:100E100001A8805D00E03020D4E901219047206ADC
:100E2000401C2062761CAAF101005FEA000A0AD188
:100E300000F054F8C0680168405CD4E90121904793
:100E4000206A401C2062281EA5F10105DCDC07E0B9
:100E5000D4E9012118F8010B9047206A401C206258
:100E6000381EA7F10107F3DC2046FFF765FB0320DE
:100E700011B041E601694A1C02610878704700B56B
:100E80008FB0CDE901310021059105497944CDE9C3
:100E9000031011466846FFF79DFB0FB000BD000030
:100EA000E5FFFFFF0A6802F8010B0A6070470000C7
:100EB000074B70B50D467B44FFF7E1FF044628461B
:100EC00000F026F910B14FF0FF3070BD204670BD24
:100ED000438D000000487047081400200048704708
:100EE000281400200048704708140020034640687A
:100EF0008C46002818BF88423CBF03464068F8D3A0
:100F000018681844884207D00CF1030020F007004D
:100F1000001D411A521A0146081D0A60FFF714BA53
:100F200030B5B0F10A024FEA900E71F100034EEABB
:100F3000817EB0EB0E0061EB91014FEA101E4EEA8C
:100F4000017E10EB0E0041EB11114FEA102E4EEA1C
:100F5000016E10EB0E0041EB11214FEA104E4EEAEC
:100F6000014E10EB0E0041EB1141401841F1000120
:100F70004FEAD00040EA41704FEAD10110EB800502
:100F80004FEA810444EA907444EB01046D1944EB88
:100F90000404521BA3414FF0000348BF0A3200D59E
:100FA00030BD401C41F1000130BD00002DE9F04191
:100FB0001F46044603260168072A01F4006004DB8B
:100FC00008B116A505E016A503E008B115A500E0D7
:100FD00015A521F010002060A069C01EA0610FB10E
:100FE000401EA0612046FFF791FA4FB1D4E90121DC
:100FF00038469047206A401C2062C01C206206E0F0
:10100000206AFAE7D4E9012115F8010B9047761E12
:10101000F8D22046FFF790FABDE8F0814E414E002D
:101020006E616E00494E4600696E66002DE9F0471C
:10103000814616468AB0354878440DC88DE80D00C3
:1010400032487844801C03AC0DC884E80D0041F69A
:101050009B300844372190FBF1F290FBF1F5A5F1AC
:10106000800501FB12041B3C02D56442012000E014
:101070000020DFF898A080460027FA44AAF1BE0AB3
:101080000EE0E0070AD03246684607EB470101232D
:101090000AEB810100F00AFF8DE8070064107F1C55
:1010A000002CEED1194F7F44AE3F19E0E80715D070
:1010B00007EB04100DF1180A90E80E008AE80E0004
:1010C000C068F04201D1981908903246012306A960
:1010D00003A800F0EBFE03AB83E807006D10641C6F
:1010E000002DE3D14FF0010332466946B8F1000FFD
:1010F00003A802D000F0C5FE01E000F0D7FEC9E968
:101100000001C9F808200AB0BDE8F08768B90000FE
:10111000007B00F08000704710B542485421FFF773
:10112000B3FB41485421FFF7AFFB40485421FFF780
:10113000ABFB3F493B483C4A3F4B08603D490A6096
:101140003A491960531C0365481C10650120086565
:101150003B48344A39A1784400F0B4F920B9384802
:1011600078440A3800F058FA37482F4A35A17844B5
:1011700000F0A8F920B9344878440A3800F04CFA55
:1011800032482A4A2FA1784400F09CF920B92F4810
:1011900078440A3800F040FA40232248DC0000215D
:1011A000224600F06CF920B125487844543800F00C
:1011B00033FA1D4822464023002100F060F920B197
:1011C00021487844543800F027FA18482246102362
:1011D000002100F054F9002806D01C487844BDE8EE
:1011E0001040563800F018BA10BD104870B5006DA8
:1011F00020F001040B4800F0DBF90B4800F0D8F9AF
:101200000A4800F0D5F909E0206D20F001052046DC
:1012100000F0CEF92046FFF797F82C46002CF3D1CA
:1012200070BD00000C13002060130020B4130020D8
:10123000E4010020E8010020EC0100207200000021
:1012400062B80000770000004EB800003AB8000015
:1012500010B500F0E9F9BDE8104000F0D8B97546C6
:10126000FFF738FEAE4605006946534620F00700FA
:10127000854618B020B5FFF725F8BDE820404FF0AF
:1012800000064FF000074FF000084FF0000B21F070
:101290000701AC46ACE8C009ACE8C009ACE8C0093D
:1012A000ACE8C0098D4670472DE9F04705460C466D
:1012B000C86820F4201040F48000C860800602D581
:1012C000084600F0ECFAE06841F282014FF0FF3985
:1012D0000140022903D0204600F08AFAB5E000F46C
:1012E0002041B1F5004F0FD1C00306D56168E06A17
:1012F000884200D80846606006E02069E0626060CD
:10130000606900F00FFFA061A0680022EEB2002823
:101310000DDAE1688B050AD4C043A06041F4903037
:101320002260E0606068411C61600670A5E0E068D2
:101330009046226040F40050E060206968BB60691C
:1013400000F0F3FE012704F12405A0B1A08910F4F8
:10135000407F08D0E069FEF7C8FF206118B1E0685F
:1013600040F4006016E0E7612561E06820F4407019
:1013700040F480600EE0E069FEF7B7FF00282061CE
:10138000F1D0E06840F4006010F4407FE06002D1EA
:1013900040F48070E06020696060E06825696FF06B
:1013A000010AC1051FD56168E06A884200D8084675
:1013B000411B04D02246284600F024FAF0BBE06826
:1013C000010203D5E562C4E9015854E0691CE162F9
:1013D0006160E16940F48030491EC4E90210304682
:1013E0002E70BDE8F087010202D500F480320AE0D9
:1013F0006068411C61600670E0680A2E40F480302D
:10140000E06006D00022E16A6068814203D90B46A1
:1014100002E00122F7E70346A7895B1B7F0503D49F
:10142000E7699F4200DDE2B1814200D80146E562F2
:101430000F1AC4E90158002B09DD00E005E022463F
:101440001946284600F0DEF908B14846C9E747B119
:10145000A069E5626560C01BA061E06840F0100013
:10146000E060E068000208D56168A069E562491B98
:1014700008446560A0615046B3E73046B1E770B5F7
:10148000C468A50713D0650211D4B2F5807F09D0D6
:10149000B2F5007F06D0B2F5806F08D1012300F1CC
:1014A000240106E05D1E6FF07F46B54201D30120A6
:1014B00070BD0161C361416024F470611143C1607A
:1014C000002070BD2DE9F0410C4607461646104637
:1014D00000F06EF82078611C61280AD0722802D0D2
:1014E00077283CD102E00125002405E002250424F0
:1014F00002E0082448F2020511F8010B2B2806D05F
:10150000622809D011F8010C74280AD00BE045F0CC
:10151000030544F00204EFE745F0040544F001043C
:10152000EAE744F010043846214600F000FE411C72
:1015300015D00021316171604FF40071F560F161E7
:101540007061200704D530460222002100F0D4F853
:10155000306D40F0010030653046BDE8F08100207C
:10156000FBE72DE9F0410D460646104C206DC10702
:1015700004D0410804D020F00104F7E722460EE031
:101580005420FEF7B2FE07000ED0206D47F0010197
:101590000843542120653846FFF776F93A46294634
:1015A0003046BDE8F0418DE70020D6E70C1300205F
:1015B0002DE9F04704464FF000094FF0FF37C568AA
:1015C000D4E90486A80707D0204600F045F9304644
:1015D00000F0A3FD002802DA3846BDE8F0872805B0
:1015E00002D54046FEF7B0FE4C212046FFF74CF9ED
:1015F000206D20F0010020654846EEE710B5044656
:10160000AFF300802046BDE81040FEF746BE00283C
:1016100001D000F084BD704710B500F07BF9BDE843
:101620001040FFF7F4BF000010B5012805D00021DD
:1016300003A000F055F9012010BD09A1F8E7000052
:1016400053494752544D454D3A204F7574206F66AB
:101650002068656170206D656D6F72790000000013
:101660003A2048656170206D656D6F727920636FF7
:1016700072727570746564004FF0013C50F8042B71
:1016800051F8043B9A4221D1A2EB0C03934313EA95
:10169000CC1317D150F8042B51F8043B9A4215D1C2
:1016A000A2EB0C03934313EACC130BD150F8042B99
:1016B00051F8043B9A4209D1A2EB0C03934313EA7D
:1016C000CC13DBD04FF00000704700BFD01A01BA36
:1016D000B1FA81F101F0180122FA01F0CB40C1F119
:1016E0002001DBB2C0B2C01A2CFA01F3D11A914327
:1016F00011EAC311E6D170472DE9F04104461646C0
:101700000D464769007B80072ED0384600F00DFD5E
:1017100050BB3EB3012E02D0022E25D104E020465C
:1017200000F012F905441DE0384600F0FBFCE168CA
:10173000002841F01001E16005DA204600F058F879
:101740000120BDE8F081C9030BD56268E16A9142CE
:1017500000D81146A26911442269891A814200DD2C
:1017600008460544002D01DA0220EAE7E16A6068D4
:10177000E268814206D29103E06203D522F400318F
:1017800041F01002A6690027AE4213DCE16A8142F3
:1017900001D90B4600E0034603EB060C2369ACEBD2
:1017A000030CAC4506DD814201D98C4600E084463D
:1017B0009C4505D1A760276042F02000A5620DE09E
:1017C000AD1BE669AE1B8142A66000D90846C01A6F
:1017D000281A20605819606022F020000349084050
:1017E000E060002084F84870ABE70000BFCFD7FF6F
:1017F000C16821F4001141F08001C16000218160C5
:10180000016070472DE9F047814614460E464FF0BF
:10181000FF383248D5685769054209D03846A16972
:1018200000F087FC002811DB2C48C0430540E56030
:101830002B4632464946384600F07EFCA16920F02E
:101840000042B21A11440028A16103D02046FFF7DC
:10185000CFFF4046BDE8F08770B504460569C06A11
:101860006168884200D80846E16821F42011E160EF
:10187000C90312D5A84208D02246411B2846FFF7CB
:10188000C1FF10B14FF0FF3070BD0020E562C4E928
:101890000150E06820F48030E060002070BD10B599
:1018A0000446C06820F02000E060A16AA069884278
:1018B0000DD02046FFF7D0FFE06820F4405040F004
:1018C0001000E060A06AA0612069E062606044F2FC
:1018D0004001E0688843E06010BD00001000020095
:1018E00070B505460C460A2000E06D1C00F026FC91
:1018F00035B128780028F8D102E0641C00F01EFC05
:1019000014B120780028F8D1BDE870400A2000F01A
:1019100015BC000010B5014602A0FFF7E1FF012051
:1019200010BD000053494752545245443A20526575
:101930006469726563743A2063616E2774206F7006
:10194000656E3A200000000010B50146C26890079D
:1019500003D0900607D5886A0AE0FFF7C3FA012191
:101960000160881E10BD8B69486818440B69C01A55
:1019700091F848301BB191F84910401A10BD11037D
:10198000FCD50028FADD401E10BD5FEA400C08BF00
:1019900091F0000F4FEA8C234FEAC12243EA5151E4
:1019A0004FEA1C5018BF00F5F0404FEA300018BF56
:1019B00041F000415FEA6C5C00F02980BCF1FF3F20
:1019C00008BF40F080407047130C06BF12044FF070
:1019D000100C4FF0000C130E04BF12020CF1080C97
:1019E000130F04BF12010CF1040C930F04BF9200FB
:1019F0000CF1020CD30F04BF52000CF1010C114684
:101A00004FF00002A0F11F00A0EB0C00704711F096
:101A1000004F08BF704731F000413FF4D5AF0B0CC9
:101A200006BF09044FF0100C4FF0000C0B0E04BF62
:101A300009020CF1080C0B0F04BF09010CF1040C96
:101A40008B0F04BF89000CF1020CCB0F04BF4900BF
:101A50000CF1010CCCF12003A0EB0C0022FA03F3F3
:101A600002FA0CF241EA030100F10100704720F094
:101A70007F4C80EA030023F07F47ACEB070303F5BC
:101A80007C5300F0004003F1FF032DE980494FEA49
:101A9000154B09B44FEA144325EA0B4E24EA0348D8
:101AA0000FF2042606EB132749083E785FEA32025C
:101AB00003FB0667C7F5000707FB06F64FEA543736
:101AC0004FEAD64606F1020607FB066CCCF1005C35
:101AD0004FEA1C472CEA074C07FB06F40CFB06F503
:101AE00004EB15464FEA961634BF00204FF0004035
:101AF0004FEAD13706FB07FC4FEA1C4C0CFB0BF7F7
:101B0000D21B03FB0CF761EB07010CFB0EF7B0EBEC
:101B1000074072EB17420CFB08F734BFA2EB0742F9
:101B2000B2EB074261EB17414FEA0C444FEA9107D1
:101B300006FB07FC4FEA1C4C0CFB0BF7B0EBC74055
:101B400072EB573203FB0CF734BFA2EBC742B2EB88
:101B5000C74261EB57310CFB0EF7B0EBC70072EBDD
:101B600057720CFB08F734BFA2EBC702B2EBC702F7
:101B700061EB5771039F4FEA816141EA921104EBD7
:101B8000CC044FEAD1374FEA826206FB07FC42EAF7
:101B900090124FEA80604FEA1C4C0CFB0BF7D21BF3
:101BA00003FB0CF761EB07010CFB0EF7B0EB0740F2
:101BB00072EB17420CFB08F734BFA2EB0742B2EB03
:101BC000074261EB17414FEA8C554FEA910704EB4E
:101BD0009C2406FB07FC4FEA1C4C0CFB0BF7B0EBFC
:101BE000C74072EB573203FB0CF734BFA2EBC7427E
:101BF000B2EBC74261EB57310CFB0EF7B0EBC700FD
:101C000072EB57720CFB08F734BFA2EBC702B2EBC2
:101C1000C70261EB577115EB4C254FEA816141EA30
:101C200092114FEA82624FEAD13742EA901206FBE4
:101C300007FC44F100044FEA80604FEA1C4C0CFBA7
:101C40000BF7D21B03FB0CF761EB07010CFB0EF744
:101C5000B0EB074072EB17420CFB08F734BFA2EB66
:101C60000742B2EB074261EB174115EB1C154FEA37
:101C7000813141EA92414FEA823242EA90424FEA90
:101C800080304FEA0C7644F1000448EA03434EEA00
:101C90000B484FF0000EB2EB080C71EB030724BFAA
:101CA000624639464EEB0E0E4FF0000B00185241C3
:101CB00049414BEB0B0BB2EB080C71EB03077BF1CB
:101CC000000B24BF624639464EEB0E0E4FF0000B60
:101CD0000018524149414BEB0B0BB2EB080C71EB76
:101CE00003077BF1000B24BF624639464EEB0E0E14
:101CF00051EA020718BF46F0010616EB0E7655F1C1
:101D0000000254F1000103D5BDE88901BDE8008857
:101D1000BDE88901BDE80048B619524141EB010117
:101D2000A3F10103704780807F7E7D7C7B7A797888
:101D3000777676757473727171706F6E6E6D6C6C90
:101D40006B6A6A6968686766666564646363626132
:101D50006160605F5F5E5E5D5D5C5C5B5B5A5A59B3
:101D6000595858575756565555555454535352521F
:101D70005251515050504F4F4F4E4E4D4D4D4C4C77
:101D80004C4B4B4B4A4A4A494949484848474747C0
:101D900047464646454545444444444343434342FD
:101DA000424242414141002B9C4630D477002BD027
:101DB0001CB54FEA370703B44FF010004FF0100185
:101DC000BAF1000F06D0BCF1000FDCBF40F00800F4
:101DD00040F008014FF000000FBCBDE810400BF1CF
:101DE000010BBBF1010F08BF5FEA170722BF12F119
:101DF000010211F101014FF0004143F1000300F035
:101E0000004043EA00007047F9D35708D0E746EA9C
:101E1000064613F1400F4FEA16461FDD13F1200F5F
:101E2000DFBF16430A46002120335B42BED0C3F118
:101E3000200746EA064602FA07F74FEA164646EA40
:101E40000706C3F1200722FA03F201FA07F721FA85
:101E500003F14FF0000342EA0702A7E746EA020651
:101E600046EA06464FEA164646EA0106BCBF46EA7F
:101E70000646360C4FF000034FF000024FF0000111
:101E800094E72DE9804C9A46934670B491E8380067
:101E900007C831EA400C48BF34EA430C03D5FFF7CA
:101EA000E6FDFFF780FFF0BCBDE8008C2DE9804C1B
:101EB0009A46934670B491E8380007C810F0804FF6
:101EC00008BF13F0804F03D100F005F8FFF76BFF58
:101ED000F0BCBDE8008C20F07F4780EA030023F0CF
:101EE0007F4C07EB0C03A3F57C5300F00040A3F1FB
:101EF000FE0392F0000F00F0B38095F0000F00F0A9
:101F000077802DE901494FEA11404FEA144621EA52
:101F1000004800FB06FC24EA064708FB06F607FB20
:101F200008F800FB07F718EB06484CEB164C4FEA95
:101F3000124B18EB07484FEA15464CEB174022EAC4
:101F40000B4E0BFB06FC25EA06470EFB06F607FBCD
:101F50000EFE0BFB07F71EEB064E4CEB164C4FF03C
:101F600000061EEB074E4CEB174B18EB0B0840F12D
:101F7000000018EB0E0B58EB000840F100008F1A20
:101F80004FF000013CBFC943661B14BFB5EB040C06
:101F900000213CBFC943F61B4FEA17444EEA8E0EA0
:101FA00027EA04454FEA1C4704FB07622CEA074C6A
:101FB00005FB07F70CFB05F604FB0CFC16EB0746CC
:101FC00042EB174216EB0C4642EB1C421BEB06069B
:101FD00058EB0202414146EA9E0601D5BDE801895F
:101FE000B619524141EB0101A3F10103BDE801899A
:101FF0004FEA14454FEA114724EA054621EA074C07
:1020000005FB07F406FB07F70CFB06F105FB0CFCD0
:1020100011EB074144EB17444FEA124711EB0C4117
:1020200044EB1C4422EA074C05FB07F206FB07F7CA
:102030000CFB06F605FB0CFC16EB074642EB1742C1
:1020400016EB0C4642EB1C456A1854F1000148BFE0
:102050007047B619524141EB0101A3F101037047EA
:1020600095F0000F37D04FEA11424FEA144721EAAA
:10207000024624EA074C02FB07F106FB07F70CFBBC
:1020800006F402FB0CFC14EB074441EB17414FEA4A
:10209000154714EB0C4441EB1C4125EA074C02FBAD
:1020A00007F506FB07F70CFB06F602FB0CFC16EB2C
:1020B000074645EB174516EB0C4645EB1C4212193B
:1020C00051F1000148BF7047B619524141EB01017F
:1020D000A3F1010370474FEA14454FEA114724EA80
:1020E000054621EA074C05FB07F106FB07F70CFB49
:1020F00006F24FF0000605FB0CFC12EB074241EB29
:10210000174112EB0C4251EB1C4148BF704792182B
:1021100041EB0101A3F101037047002070474FF02C
:10212000FF3070474FF0FF307047002070470120AC
:1021300070474FF0FF307047002070477047000035
:10214000454910B54A6822F440324A604A684368FB
:102150001A434A6001684A6822F480724A60016842
:102160004A68036942EA03224A6001684A6822F029
:1021700040724A6001684A6883681A434A6001688D
:102180008A6822F400628A6001688A68C3681A4318
:102190008A60816A6FF07062D14201688A6822F0B9
:1021A00070628A6001688A680CD0836A1A438A6008
:1021B00001688A6822F040528A6001688A68C36AAE
:1021C0001A4301E022F040528A6001688A6822F0D6
:1021D00002028A6001688A68836942EA43028A606F
:1021E000016A002901684A680FD042F400624A601F
:1021F00001684A6822F460424A6001684A68174CE4
:10220000436A04EB43331A4301E022F400624A605C
:102210000168CA6A22F47002CA620168CA6A838BC2
:102220000F4C04EB03531A43CA6201688A6822F414
:1022300000728A6001688A68036B42EA43228A60FE
:1022400001688A6822F480628A6001688A6840694D
:1022500042EA8020886010BD0023014000E0FFFFBB
:102260000000F0FF0146014802F0B0BA0C05002062
:1022700010B5044802F0BCFA042801D0012010BDBA
:10228000002010BD0C05002038B501208DF800009D
:102290009DF80000012801D0012038BD064802F059
:1022A0009DFB040006D14FF40061034802F064F97D
:1022B00000B10124204638BD0C05002038B50024AB
:1022C000009313460A460146034802F007FC00B19A
:1022D0000124204638BD00000C05002038B500243C
:1022E000009313460A460146034802F0D3FC00B1AE
:1022F0000124204638BD00000C050020FEE7002028
:10230000704700207047000010B5002205490648BC
:1023100004F040FA03490448783904F035FA002003
:1023200010BD000094120020080A002010B50446D9
:10233000096809F03BFC2146034804F025FA0248ED
:1023400004F006FA002010BD080A0020094A10B562
:10235000D2F81822D2F814220AB1012010BD0A4680
:102360000146044804F016FABDE81040014804F0A4
:1023700051BA0000080A0020014800F0D3B900005B
:10238000A809002001681823CAB2103AB2FBF3F280
:10239000054B6FF30901032A9B5CC36500D9091D36
:1023A0008165084670470000A4C6000810B50146C4
:1023B00000208B698A6A4FF0C07453B1B3F5005F97
:1023C00015D072B1012A0CD0022A0AD0032A09D1F1
:1023D00004E01AB1012A06D0022A03D1C96AC90150
:1023E00000D5012010BDC96AA142FAD010BD002A53
:1023F000F7D0012AF2D0022AF3D0032AF3D010BD7D
:1024000070474FF4805000F06BBB102000F068BBA9
:10241000002200F001B8000030B50E4B0546012047
:102420005C7A002C14D1587A1C54587A03EB800043
:1024300045605D7A03F108002A54587A421C5A72AA
:10244000303008703A2048702F208870CC700020FF
:1024500030BD0000F001002078B50024009490F811
:102460003C20012A19D0012280F83C200A68072369
:102470000568092A13D9EE680A3A02EB4202934032
:102480009E43EE600B788A680A3B03EB43039A4055
:102490000368DD682A43DA6010E0022078BD2E6907
:1024A00002EB420293409E432E610B788A6803EB55
:1024B00043039A4003681D692A431A614A681F232F
:1024C000072A13D205686E6B521E02EB82029340FC
:1024D0009E436E630B790A885B1E92B203EB830303
:1024E0009A4003685D6B2A435A6327E005680D2A0A
:1024F00012D22E6BD21F02EB820293409E432E63B8
:102500000B790A88DB1F92B203EB83039A400368BE
:102510001D6B2A431A6311E0EE6A0D3A02EB820248
:1025200093409E43EE620B790A880D3B92B203EB17
:1025300083039A400368DD6A2A43DA62164B056812
:10254000144A9D4206D10D68122D03D1556845F4F9
:102550008005556005689D4218D10B68102B01D08D
:10256000112B13D1536843F40003536009681029F9
:102570000CD10A490A4A0968B1FBF2F101EB810169
:10258000490000E0491E00910029FBD180F83C4041
:10259000002078BD0023014000200140840000207D
:1025A00040420F000068C06C704770B504004FF0E7
:1025B000000503D0206C002610B107E0012070BD9B
:1025C000666484F83C60204600F01AF8206CC0066F
:1025D00010D4206C20F4885040F002002064204683
:1025E000FFF7AEFD6664206C20F0020040F00100B1
:1025F000206400E0012584F83C60284670BD00009E
:1026000000B500680C4987B0884212D10B48002100
:10261000026842F480720260006800F480700590E5
:10262000012000900320CDE901016946044800F033
:1026300063FA07B000BD00000020014044380240AA
:102640000000024018B50021009190F83C20012ABA
:1026500007D0012280F83C2002689368DB0702D093
:1026600011E0022018BD936843F001039360204AF3
:10267000204B1268B2FBF3F202EB420200E0521E62
:102680000092002AFBD102689368DB072DD0036C0F
:1026900040F20164A34343F48073036453685B0511
:1026A00005D5036C23F4005343F480530364036C97
:1026B000DB0404D5436C23F00603436400E041646B
:1026C00080F83C100C496FF02203136049680068E1
:1026D000C90602D00949884207D1816811F0405FDC
:1026E00003D1816841F080418160002018BD000065
:1026F0008400002040420F000023014000200140E0
:1027000090F83510022903D08021416501207047DF
:10271000052180F835100068016821F00101016091
:10272000002070472DE9F84304464FF00009CDF82A
:10273000009063484FF41651A56D0068B0FBF1F7A7
:102740002E6894F85C10082000FA01F131420FD095
:1027500021680A6852070BD50A6822F004020A6051
:1027600094F85C108840A860606D40F001006065DE
:1027700094F85C104FF0010808FA01F0304208D0DC
:1027800021684969090604D5A860606D40F002001F
:10279000606594F85C1004208840304208D02168BD
:1027A0000968890704D5A860606D40F00400606581
:1027B00094F85C1010208840304218D021680968D5
:1027C000090714D5A86020680168490304D500688A
:1027D000000308D5A16C07E00168C90503D40168AE
:1027E00021F008010160216C09B12046884794F866
:1027F0005C1020208840304231D021680968C90629
:102800002DD5A86094F8350005282068016806D009
:10281000490347D5006800031DD4616C1CE021F01A
:10282000160101602068416921F080014161206C3E
:1028300008B9A06C20B12068016821F0080101608E
:1028400094F85C103F208840A86084F8349084F8A5
:102850003580216D1FE0E16B09B120468847606D2E
:1028600000282BD0606DC00714D0052084F83500F7
:102870002068016821F0010101600098401C00906F
:10288000B84203D820680068C007F6D184F83490B5
:1028900084F83580E16C002910D001B02046BDE8F5
:1028A000F04308470168C905D5D4016821F010013B
:1028B000016084F8349084F83580CCE7BDE8F88373
:1028C000840000202DE9F041044600F0E3F90646BB
:1028D0005CB1002584F83450022084F8350020686B
:1028E000016821F0010101600DE00120BDE8F081E7
:1028F00000F0D0F9801B052805D920206065032051
:1029000084F83500F2E720680068C007F0D122683B
:10291000116820480140D4E901031843D4E9033683
:102920003343184363691843A3691843E3691843A1
:10293000236A18430843616A042903D1D4E90B13BD
:1029400019430843106020684069666A20F0070157
:1029500030460E43012704280CD1A06A0643E06AE2
:1029600040B12046FFF722FD20B14020606584F889
:102970003570BAE7206846612046FFF703FD94F8FA
:102980005C203F2191408160656584F835700020AE
:10299000ACE700003F8010F070B5044600F07AF913
:1029A0000546601C02D004480078044400F072F927
:1029B000401BA042FAD370BD880000202DE9F04FE3
:1029C000DFF8ECB000224FF001094FF00F0A00BF12
:1029D00009FA02F401EA0403A34264D1066857002D
:1029E0000325BD40AE430660D60800EB8607D7F846
:1029F00020C056074FEAD6680AFA08F62CEA060CF9
:102A0000C7F820C08668AE4386604668A643466025
:102A1000C468AC43C46022F003055D44D5F808687F
:102A20009407270F0AFA07F4DFF888C026406045AC
:102A300002D14FF0000C1DE0DFF87CC0604502D1F0
:102A40004FF0010C16E0DFF874C0604502D14FF082
:102A5000020C0FE0DFF868C0604502D14FF0030CB4
:102A600008E0DFF860C0604502D14FF0040C01E0DF
:102A70004FF0070C0CFA07FCB44514D1D5F80868E0
:102A8000A643C5F80868104C25689D432560241DA1
:102A900025689D432560241D25689D432560241DD0
:102AA00025689D432560521C102A91D3BDE8F08F04
:102AB00000300140000002400004024000080240D3
:102AC000000C024000100240003C0140B0F5805F65
:102AD00002D1024901200870704700001000002058
:102AE000044910B50A68024202D00860FFF7EEFF01
:102AF00010BD0000143C01402DE9F84FDFF860B133
:102B000000224FF001084FF0030A4FF00F090BF1BC
:102B1000040E00BF0B6808FA02F42340A3426ED1F2
:102B20004D68022D01D0122D0ED1D50800EB850C79
:102B3000DCF820505607F70E09FA07F6B5430E6980
:102B4000BE402E43CCF82060066855000F790AFA83
:102B500005FC07F0030726EA0C06AF403743076081
:102B60004E68012E05D0022E03D0112E01D0122E58
:102B70000ED18668CF6826EA0C06AF4037438760DF
:102B80004668A6430C79C4F300149440344344606F
:102B9000C6688C6826EA0C06AC403443C4604C68B6
:102BA000E40056D52F4C256845F4804525602468FF
:102BB00022F0030504F4804400942B4C2E19D6F81F
:102BC000084895072F0F09FA07F5AC43274DA8428F
:102BD00001D1002515E0264DA84201D1012510E0C4
:102BE000244DA84201D102250BE0234DA84201D17A
:102BF000032506E0214DA84202D1042501E028E08A
:102C00000725BD402543C6F80858DBF800405D465F
:102C10004E689C43F60300D51C432C60DEF8004050
:102C200075464E689C43B60300D51C432C600C4D82
:102C300008352C684E689C43F60200D51C432C6076
:102C4000074D0C352C684E689C43B60200D51C43DA
:102C50002C60521C102AFFF45DAFBDE8F88F000015
:102C6000003C014044380240003001400000024076
:102C70000004024000080240000C02400010024024
:102C800042694A40426170470AB181617047090454
:102C9000FBE70000014880687047000088000020C2
:102CA00070B5040004D094F83D00002510B106E092
:102CB000012070BD84F83C50204600F011FA242019
:102CC00084F83D002068016821F00101016001F0F5
:102CD000CDF833492268B0FBF1F15160314A6368A5
:102CE000934206D94FF4967359434FF47A73B1FB6C
:102CF000F3F12368491C1962616891420BD84900BD
:102D0000B0FBF1F2C2F30B02042A01D2042019E055
:102D1000B0FBF1F016E0A3689BB301EBC10202EB3C
:102D20000112B0FBF2F242F48042120530D04BB3F4
:102D300001EBC10202EB0111B0FBF1F040F4804065
:102D400040F400402168C861D4E9070108432168C4
:102D50000860D4E90310084321688860D4E90501BC
:102D600008432168C8602068016841F001010160E2
:102D70002564202084F83D00256384F83E5000201F
:102D800070BD00E006E001EB4102B0FBF2F2CCE7DF
:102D90000120D7E701EB4101B0FBF1F0D0E70000E3
:102DA00040420F00A08601002DE9FF4F83B09A46F4
:102DB000DDE9118793460446DDF84090FFF76AFF8E
:102DC000054694F83D00202874D119230122724948
:102DD0002046009502F0F7FA0028F5D194F83C005F
:102DE000012867D0012084F83C0020680168C907E9
:102DF00003D1016841F0010101602068016821F4FC
:102E000000610160222084F83D00402084F83E00EB
:102E100000262664C4F82490A4F82A805F48E06263
:102E2000608D2085CDE9007553465A4620460499A9
:102E300002F0D9F928B1206C84F83C60042843D012
:102E400076E0208DC8B1012820D00228206823D048
:102E5000416980690090208D03286BD801282AD011
:102E60004F4902283B464FF0000200955BD0884650
:102E7000204602F0A8FAE8BB40E020684169816979
:102E80000091016841F40071016076E020680168FA
:102E900021F480610160F0E7016821F48061016044
:102EA0002068016841F4006101602068416980691F
:102EB000009062E06EE02A463946204602F0F8FAB9
:102EC00030B1206C202833D0012007B0BDE8F08F4E
:102ED000206847E02068016841F4007101602068C3
:102EE0000169606A421C62620170208D401E20856B
:102EF000608D00E01CE0401E6085E9E72068016805
:102F000021F48061016020680169606A421C62628C
:102F10000170208D401E2085608D401E60853B46DF
:102F2000002241460095204602F04DFA0028D1D0FB
:102F30000320CAE72A463946204602F0B9FA00289B
:102F4000BFD120680169606A421C62620170208DF5
:102F5000401E2085608D401E608520684169C94300
:102F600049070AD40169606A421C62620170208DBF
:102F7000401E2085608D401E6085208D00287FF4D6
:102F80006AAF202084F83D0084F83E6084F83C60FD
:102F900000209AE7022098E7020010000000FFFFDF
:102FA000040001002DE9FF4F83B09A46DDE9118747
:102FB00093460446DDF84090FFF76CFE064694F811
:102FC0003D0020287DD11923012243492046009647
:102FD00002F0F9F900287CD194F83C00012878D05F
:102FE000012084F83C0020680168C90703D101680A
:102FF00041F0010101602068016821F40061016075
:10300000212084F83D00402084F83E0000252564FE
:10301000C4F82490A4F82A803048E062608D2085AE
:10302000CDE9007653465A462046049902F054F9F9
:1030300080B3206C84F83C50042848D008E0324625
:103040003946204602F065FA30B1206C042839D0A8
:10305000032007B0BDE8F08F606A411C61622168FF
:1030600000780861208D401E80B22085618D491E48
:10307000618521684A69D24352070BD468B1606AFE
:10308000421C626200780861208D401E2085608DA0
:10309000401E6085208D0028D1D132463946204619
:1030A00002F06AF90028D0D154F83D0B016841F4D0
:1030B00000710160202004F81E09E5776577002083
:1030C000C7E706E02068016841F400710160012053
:1030D000BFE70220BDE70000020010000000FFFF74
:1030E000F0B50068124987B088421ED1001512243D
:1030F000012503268DE8710004200E4F04906946D7
:103100003846FFF7F9FC08208DE87100092004908B
:1031100069463846FFF7F0FC0748016841F4800132
:103120000160006800F48000059007B0F0BD000069
:1031300000580040000402404038024002488168C4
:103140000278114481607047880000200B4810B558
:10315000016841F400710160016841F4806101601F
:10316000016841F480710160032000F081F80020C3
:1031700000F006F800F024F8002010BD003C0240EA
:1031800070B50D4D04464FF47A712878B1FBF0F01C
:103190000A490968B1FBF0F001F0DCFE48B9102CD7
:1031A00007D200222146501E00F042F800206C6039
:1031B00070BD012070BD0000880000208400002048
:1031C00010B5032000F054F8002211466FF00B00F8
:1031D00000F02EF8002211466FF00A0000F028F8E7
:1031E000002211466FF0090000F022F8002211467B
:1031F000501F00F01DF800221146101F00F018F8B3
:1032000000221146901E00F013F80022BDE8104085
:103210001146501E00F00CB800F01F020121914031
:103220004009800000F1E020C0F800117047000064
:10323000F0B40E4B1B680C46C3F30223C3F1070521
:10324000042D00D90425191D072901D2002300E00F
:10325000DB1E012606FA05F1491E214099409E40D9
:10326000761E16403143F0BC02F0AEB90CED00E022
:10327000064900F0070208684FF6FF03184040EACD
:103280000220034A10430860704700000CED00E084
:103290000000FA050068416200207047F0B5006840
:1032A0000023446A31B1856A4FF4827604EB1544F9
:1032B0004D1E0AE044EA024181620FE006EB8307FB
:1032C000C7595B1C04EB1744DBB2AB42F6DB4FF48F
:1032D000807303EB810144EA024242500020F0BDBA
:1032E000D0F8EC0303F0BEBCC1EBC10200EB8202DC
:1032F000D0F8EC03526C03F02BBCC1EBC10200EB25
:103300008202D0F8EC03D2F8042203F076BCD0F8A5
:10331000EC0303F0A9BC10B504460A460B0601F005
:103320007F00C0EBC00104EB810101D5383101E021
:1033300001F5FC710870D009487094F8B8030128B1
:1033400009D0012084F8B803206803F0CFFF0020E3
:1033500084F8B80310BD022010BD70B50A460446BB
:10336000090602F07F0005D5C0EBC00104EB810126
:10337000383105E0C2EBC20104EB810101F5FC71BB
:1033800000258D700870D009487094F8B8030128A2
:1033900009D0012084F8B803206804F088F984F883
:1033A000B853002070BD022070BD01F00F01C1EBC9
:1033B000C10100EB8100B0F8100280B2704770B517
:1033C00004460D460E0601F07F00C0EBC00104EB81
:1033D000810101D5383101E001F5FC71ED0908707A
:1033E0004D708A60CB7000D0C8800025022B00D1C0
:1033F0000D7194F8B803012809D0012084F8B803AE
:10340000206803F0C7FE284684F8B85370BD022038
:1034100070BD70B50C4601F07F05C5EBC50100EB32
:103420008101C1F80C32C1F804220023C1F8103226
:1034300081F8F93181F8F851036901F5FC71012B2C
:1034400000D10A616206027C006803D004F090F9A2
:10345000002070BD04F06CF8FAE770B50D46044624
:10346000090605F07F0005D5C0EBC00104EB810122
:10347000383105E0C5EBC50104EB810101F5FC71B4
:1034800001228A700870E809487094F8B80301288E
:1034900007D084F8B823206804F03BF9680602D00E
:1034A00007E0022070BD217C04F56F72206804F0F3
:1034B000DFF8002084F8B80370BD70B50C4601F049
:1034C0007F05C5EBC50100EB8101CB644A64002395
:1034D0000B65012381F8393001F8385F0369012B4E
:1034E00000D10A616206027C006803D004F040F952
:1034F000002070BD04F01CF8FAE700002DE9F84F39
:10350000044600680026054604F086FA002875D1B6
:10351000206804F0AAFA002870D0206804F0A5FA08
:10352000800704D52068416901F0020141612068EB
:1035300004F09BFA010304F56F704FF0010B4FF09C
:10354000000A00904DD5206804F071FA074646E065
:10355000F80742D0F1B2206804F07FFA8046C00735
:1035600028D005EB4612C2F808BB2069012811D10A
:10357000C6EBC60004EB8001D2F8102BD1F8000294
:10358000C2F31202821AC1F81022D1F804221044A8
:10359000C1F80402F1B22046FFF7AFFE206901280E
:1035A00008D13EB9D4F80C0220B920680121009A54
:1035B00004F05EF85FEA087007D5204600F0DCFAF8
:1035C00005EB46110820C1F8080B5FEAC86004D576
:1035D00005EB46111020C1F8080B7F08761C002F60
:1035E000B6D1206804F041FA40034FF040095ED59F
:1035F000206804F015FA0746002656E0D2E1F807E5
:1036000051D0F1B2206804F019FA8046C00724D0E6
:10361000D5F834280BFA06F08243C5F8342805EBB8
:103620004610C0F808B92069012807D1C6EBC600CA
:1036300004EB8000D0E9101211444164F1B220463D
:10364000FFF752FE2069012807D136B9E06C20B996
:1036500020680121009A04F00BF85FEA087004D595
:1036600005EB46110820C1F808095FEAC86004D5D7
:1036700005EB46111020C1F808095FEA486003D540
:1036800005EB4611C1F808995FEA887004D505EB8F
:1036900046110220C1F808095FEA086003D53146E7
:1036A000204601F0A7FF7F08761C002FA7D12068D5
:1036B00004F0DBF900280DDAD5F8040820F0010049
:1036C000C5F80408204600F03DFA2168486900F07A
:1036D00000404861206804F0C8F900050BD5D5F812
:1036E0000808C00702D0204600F062FA206841694D
:1036F00001F400614161206804F0B7F9C0044CD5C1
:10370000D5F8040820F00100C5F80408102120684D
:1037100004F052F90020FF2107E000BF05EB401242
:10372000C2F80819C2F8081B401C62688242F5D82A
:103730004FF0FF30C5F81808D5F81C0840F001100C
:10374000C5F81C08206B60B1D5F8840840F00B0068
:10375000C5F88408D5F8440840F00B00C5F84408C3
:103760000BE0D5F8140840F00B00C5F81408D5F8A4
:10377000100840F00B00C5F81008D5F8000820F438
:10378000FE60C5F80008217C2068009A03F070FFF5
:103790002168486900F480504861206804F065F9A8
:1037A00080047DD5206803F035FD2068C16821F4D0
:1037B0007051C160206804F011F978B10320C4F899
:1037C0001490E06000F04CFB7749784A0144914244
:1037D0000AD22068C16841F4705158E04FF400707B
:1037E000C4F80CA0606136E07149724A014491420C
:1037F00004D22068C16841F4605148E06E496F4AC4
:103800000144914204D22068C16841F450513EE025
:103810006B496C4A0144914204D22068C16841F46A
:10382000405134E06849694A0144914204D2206819
:10383000C16841F430512AE06549664A0144914229
:1038400004D22068C16841F4205120E06249421846
:1038500062498A4204D22068C16841F4105116E0DE
:103860005F49604A0144914204D22068C16841F432
:1038700000510CE05C4908445C4988422068C168FA
:1038800003D241F4E05102E00AE041F4C051C160CA
:10389000204600F047F92068416901F40051416178
:1038A000206804F0E2F8C00636D52168886920F067
:1038B00010008861D5F8208008F00F00C0EBC00030
:1038C00004EB8007C8F3434007F5FC77022802D0D9
:1038D000062812D01BE047F6F07018EA000F16D049
:1038E000C8F30A1290462846F96804F0C2F8F8684E
:1038F0004044F860B869404408E00822284600992E
:1039000004F0B7F8B969C8F30A100844B861206830
:10391000816941F010018161206804F0A6F8000778
:1039200007D5204600F012F92068416901F008012E
:103930004161206804F099F8C00208D5F1B2204630
:1039400000F056F82068416901F480114161206857
:1039500004F08BF8800208D5F1B2204600F04CF854
:103960002068416901F400114161206804F07DF88C
:10397000400007D52046FFF7B3FC2068416901F0FD
:1039800080414161206804F070F840070AD5206842
:103990004568680702D52046FFF7B9FC20684168F2
:1039A00029434160BDE8F88F405327FF00350C00E4
:1039B000401E1BFF40420F0000DC0BFF804F120037
:1039C000808CF9FE20D6130060B6E5FE60E3160099
:1039D00000D3CEFE40771B00C05BB3FEC091210038
:1039E00000CA91FE20753800E05459FEE09C410069
:1039F000D0F8EC0303F096B9D0F8EC0303F094B9D7
:103A0000F0B58BB004004FF0000556D0032084F8C9
:103A1000B903204600F054F8206803F083FD04F158
:103A2000100128220F466846FCF7FCFE94E80F00C0
:103A300003F00AFC0021206804F02BF80126002086
:103A4000C5EBC50104EB810181F8396001F8385FED
:103A5000CD80C8708860C8606D1C48610F2DEFD3A1
:103A600000214FF4827300BFC1EBC10204EB82025C
:103A700003EB810582F8F90182F8F811D18782F809
:103A8000FB01C2F80002C2F80402C2F80C0222686C
:103A90005051491C0F29E7D3282239466846FCF7C4
:103AA000C1FE94E80F0003F09DFC84F8B963206820
:103AB00003F08CFC00200BB0F0BD0120FBE7000000
:103AC00000B5006887B0B0F1A04F25D14FF4C050C9
:103AD00000900220019000200290032003900A2011
:103AE000049069460D48FFF707F80D48016841F05A
:103AF000800101600A481030016841F48041016092
:103B00000068002200F48040059011464320FFF732
:103B10008FFB4320FFF780FB07B000BD0000024091
:103B20003438024010B50446C068012100B90021B4
:103B3000D4F8EC0303F04EF9D4F8EC03BDE81040E0
:103B400003F017B9D0F8EC0303F032B9D0F8EC0366
:103B500003F034B910B5044690F8B803012809D031
:103B6000012084F8B803206803F0A9FF002084F83E
:103B7000B80310BD022010BDD0F8EC2300F56F7122
:103B8000104603F03AB910B5044690F8B80301287E
:103B90000CD0012084F8B803206803F00BFC2068E7
:103BA00003F0F4FE002084F8B80310BD022010BD1D
:103BB00010B50446D0F8EC0303F06CF92068D0F897
:103BC000001E41F00101C0F8001E206A002804D048
:103BD0000248016841F00601016010BD10ED00E0EF
:103BE0002DE9F843044600684FF00109C1074FF082
:103BF000000601D1400727D5DFF81C81C8F86860AE
:103C0000FFF748F80746454D05E000BFFFF742F8CB
:103C1000C01B022857D828680001F7D460688101CA
:103C2000207A41EA00703D4984310860C8F8689004
:103C3000FFF730F8074604E0FFF72CF8C01B022816
:103C400041D828680001F7D52078800752D533483D
:103C50004030016841F0805101600068304D00F053
:103C600080500090286840F480702860FFF712F8B8
:103C7000074604E0FFF70EF8C01B022823D8286887
:103C8000C005F7D5254D7035286810F4407020D058
:103C9000A18901F4407181421BD0286820F4407151
:103CA0002048C0F80090066029602868C00710D03E
:103CB000FEF7F0FF064641F2883707E0FEF7EAFF1D
:103CC000801BB84202D90320BDE8F883286880072A
:103CD000F4D5E1681148C1F301220830032A12D05B
:103CE000016821F4F81101602868A189C1F30B0172
:103CF000084328602078000703D50B49207CC1F8D1
:103D0000E0010020E0E70268084B22F4F8121940B5
:103D10000A430260E8E70000000047420038024022
:103D200000700040400E474200104742FFFCFF0F6A
:103D30002DE9F0470E46050065D0DFF81481D8F86C
:103D40000000F7B200F00F00B04207D288F8007010
:103D5000D8F8000000F00F00B04254D128683D4C64
:103D6000810712D5400703D5206840F4E050206059
:103D70002878000703D5206840F460402060206860
:103D8000A96820F0F000084320602878C0072DD0F3
:103D9000304968680839012812D0022813D0032856
:103DA00011D00968890700292DDA216821F0030163
:103DB00001432160FEF76EFF814641F2883A0EE032
:103DC00009688903EFE709688901ECE7FEF762FFFC
:103DD000A0EB0901514502D90320BDE8F087206816
:103DE000696800F00C00B0EB810FEFD1D8F800103B
:103DF000404601F00F01B14207D90770006800F09A
:103E00000F00B04201D00120E7E72878400705D530
:103E10002068E96820F4E050084320602878000713
:103E200006D52068296920F4604040EAC10020607E
:103E300000F03CF82168084AC1F30311515CC84006
:103E4000064908600020FFF79BF90020C5E7000045
:103E5000003C0240083802408CC600088400002064
:103E600001480068704700008400002004480549AC
:103E700000680968044AC1F38221515CC840704758
:103E800084000020083802409CC600080448054908
:103E900000680968044AC1F34231515CC840704768
:103EA00084000020083802409CC60008154810B560
:103EB000006810F00C02144813D04110042A0FD0EF
:103EC000082A0ED10F4C241F2268236802F03F02FB
:103ED0005B0207D52068C0F38810A0FB010106E053
:103EE000084610BD2168C1F38811A1FB0001002321
:103EF000FCF751FA2168C1F30141491C4900B0FBAC
:103F0000F1F010BD083802400024F4002DE9F84F0C
:103F1000050076D02878DFF8F8B2BE4CC00749D04B
:103F2000DBF800105846C1F38101012908D0006870
:103F3000C0F3810002280AD1201D0068400206D586
:103F40002068800336D568680028E2D032E06868CF
:103F5000B0F5803F10D0B0F5A02F206810D020F42D
:103F600080302060206820F4802020606868A0B144
:103F7000FEF790FE06460CE0206840F48030F4E73F
:103F800040F480202060F7E7FEF784FE801B642861
:103F900073D820688003F7D50CE0FEF77BFE064659
:103FA00005E000BFFEF776FE801B6428F0D820688D
:103FB0008003F7D42878DFF8608280074FF000098B
:103FC0003ED5DBF80010584611F00C0F09D0006800
:103FD000C0F3810002280BD18D48001F0068400209
:103FE00006D42068800715D5E868012809D111E0BA
:103FF000E868B8B10120C8F80000FEF74BFE06469D
:1040000005E002E1FEF746FE801B0228C0D82068CA
:104010008007F7D52068296920F0F80040EAC10040
:1040200020600DE0C8F80090FEF734FE064604E07C
:10403000FEF730FE801B02281FD820688007F7D4C7
:104040002878000722D5724E744869696C3671B1C0
:1040500001210160FEF71EFE074604E0FEF71AFE8E
:10406000C01B022809D830688007F7D50EE0C0F8D9
:104070000090FEF70FFE074605E083E0FEF70AFE1C
:10408000C01B02287ED830688007F7D42878400704
:1040900068D5DFF87CA100270AF1380ADAF80000B9
:1040A000C0000BD4DAF8001041F08051CAF80010BB
:1040B000DAF80000012700F080500090584E306878
:1040C000C00510D4306840F480703060FEF7E2FD27
:1040D000009005E0FEF7DEFD0099401A022851D855
:1040E0003068C005F6D54A4EA868683601280FD05A
:1040F0000528306810D020F001003060306820F0D2
:1041000004003060A868B8B1FEF7C4FD00900FE06D
:10411000306840F00100F4E740F004003060F7E759
:10412000FEF7B8FD0099411A41F28830814264D807
:1041300030688007F4D50EE0FEF7ACFD009007E094
:10414000FEF7A8FD0099411A41F28830814254D807
:1041500030688007F4D42FB1DAF8001021F08051D4
:10416000CAF80010A869C0B3DBF80010C1F38101E0
:1041700002294AD00228484607D0C8F86000FEF756
:1041800089FD00E039E005463AE04746C8F860009E
:10419000FEF780FD064604E0FEF77CFD801B02284A
:1041A0002BD820688001F7D4D5E907010843A96A14
:1041B0001C4A490802EB01416A6A41EA821108433C
:1041C00095F82C1040EA01611148001F01600120A0
:1041D0003866FEF75FFD054605E014E0FEF75AFD80
:1041E000401B022809D820688001F7D50BE000BFEA
:1041F000FEF750FD401B022802D90320BDE8F88FCE
:1042000020688001F4D40020F8E70120F6E70000E0
:10421000083802400038024000004742800E474202
:10422000007000400000FFFF10B500680B464168B9
:104230000D480140080CD870C1F304245C7001F0F3
:104240003F049C70C1F34231197052B901F017FA62
:10425000D870587801F013FA5870987801F00FFA76
:104260009870002010BD00003FFFFF0010B50B4606
:104270000168896A596001680969C1F30E01996092
:10428000006801680E480140C1F305401870C1F391
:1042900006245C7001F07F049C70402404EA114104
:1042A000D97052B901F0EBF91870587801F0E7F9BC
:1042B0005870987801F0E3F99870002010BD000064
:1042C0007F7F7F0070B5040002D0607F10B106E0F0
:1042D000012070BD00202077204600F049F8022020
:1042E00060772168CA2048622168532048622046CE
:1042F00001F0DAF9FF25042618BB206881681B4A03
:10430000114081602168886862681043D4E9042301
:104310001A43104388602168E068086120680169D9
:10432000228941EA024101612068C16821F08001CF
:10433000C16020688068800607D4204600F000F93C
:1043400018B1206845626677C2E72068016C21F4E5
:10435000802101642068016CA26911430164206816
:10436000456201206077002070BD0000BFFF8FFF15
:1043700000680349884202D1024901200860704761
:10438000002800403C0E47422DE9F0470446007FDC
:104390000B4601281FD04FF0010984F81C90022021
:1043A0006077DAB19878D97840EA01455878197879
:1043B000000240EA413005432168CA204862216872
:1043C00053204862204601F06FF90026FF274FF086
:1043D000040860BB1AE00220BDE8F0875878C106E7
:1043E00003D500F0EF000A305870D87801F050F98A
:1043F0000204587801F04CF942EA0022987801F062
:1044000047F90243187842EA4035D5E70F4805409E
:10441000206845602068C16821F08001C160206883
:10442000806880060AD4204600F08AF830B12068FF
:10443000476284F81D8026770120CDE72068476217
:1044400084F81D9026770020C6E700003FFFFF009C
:104450002DE9F0470446007F0D46012811D04FF0AA
:10446000010A84F81CA0022060772068002680687A
:104470004FEA406042B100281ADA287801F0FFF8CC
:1044800017E00220BDE8F087002800DBEE702878F6
:1044900001F0FEF80204687801F0FAF842EA00221E
:1044A000A87801F0F5F80243E87842EA00470AE00C
:1044B000EE70A878297840EA01476878E978000228
:1044C00040EA014007432168CA204862216853201E
:1044D0004862204601F0E8F84FF0FF084FF0040969
:1044E000E0B916480740206807602068816821F419
:1044F00080218160D5E90301084321688A6810435F
:1045000088602068C16821F08001C16020688068EF
:1045100080060BD4204600F013F838B12168C1F8AA
:10452000248084F81D9026770120ABE72168C1F82C
:10453000248084F81DA026770020A3E77F7F7F00DA
:1045400070B504460068C16821F0A001C160FEF7A3
:10455000A1FB05464FF47A7607E000BFFEF79AFB11
:10456000401BB04201D9032070BD2068C06880069E
:10457000F4D5002070BD7047FEB5044603200D46FB
:1045800084F83400606C032820D0B5F5805F1DD01E
:10459000B5F5006F05D045B1A06B40F00060A06399
:1045A00009E0204601F081FD02E0204601F056FDC1
:1045B000A16B0143A163A06B012658B1216840F2B1
:1045C000FF50886384F834600120FEBDA06B40F08A
:1045D0008050E4E7211DD4E905700EC90095CDE9AE
:1045E0000170206801F0A0F884F834600020FEBD5E
:1045F0007047F0B5426E120E93090B70C2F383033D
:104600004B7002F003028A70426E120CCA70B0F84E
:104610006420120A0A7190F864204A71826E4FF683
:10462000FF73120E03EA0212CA80826ECB88C2F3B5
:10463000074243EA1213CB8002F00F020A72B0F86D
:104640006820C2F30722D3094B72C2F380138B7226
:10465000C2F34013CB72C2F300130B7300264E73E8
:10466000446C4FF4007701236CB1012C43D00268F5
:1046700040F2FF519163816B41F08051816380F87A
:1046800034300120F0BD9207120D0A6190F86820C5
:104690000C6944EA82020A61C26E0C69120E44EA95
:1046A00092140C61C2F3C2040C7502F007024A7541
:1046B000C26EC2F3074254098C75C2F38204CC75F2
:1046C0009207520F0A76B0F86C20C2F307240A7ED4
:1046D00042EAD4120A760A69521C42650D7EAD1C6C
:1046E000AA4042650D7A03FA05F585656D0A6A43AD
:1046F000C0E917271CE090F868209206920A0A6128
:10470000C26E0C69120E44EA02220A61C26E0C6982
:10471000C2F3074214430C61B0F86C20C2F30724C3
:104720000A69521C4FEA82224265C0E91672076686
:10473000C4F3801201F8192F4FEA84624FEA5262E3
:104740004A7010F86C2F4C7844EAD2144C7002F086
:104750007F028A7042684FEA12624FEAD214CC702C
:10476000C2F341140C71C2F382044C714FEA82729D
:104770004FEA12728A7142688C79C2F3074244EAA6
:1047800092148C71C2F34014CC710E7202F00102CB
:104790004A728288C2F307224FEAD2148C72C2F3A3
:1047A0008014CC72C2F340140C73C2F300144C7327
:1047B000C2F381048C7302F00302CA7300794FEADA
:1047C000500008744B744FF00000F0BD426C0A605A
:1047D000826C4A60C26C8A60026DCA60426D0A6176
:1047E000826D4A61C26D8A61006EC86100207047A7
:1047F00070B50446B0F8500000250104206801F0AF
:1048000012F918B1A16B0143A16304E000212068F3
:1048100000F07DFF0546C5F3432070BD70B504462A
:104820000068416B4FF00105CA0540F23A3149D5A5
:104830002A0282632068C26B8A43C263206B00072E
:10484000206B22D5800702D4206B800609D5206812
:1048500001F01AF928B1A16B0143A1632046FFF7CB
:10486000C7FE216840F2FF50886384F83450206B03
:10487000C00702D1206B800703D5204600F007FA5D
:1048800070BD204600F004FA70BD0006FCD5206B18
:10489000800609D5206801F0F7F828B1A16B014323
:1048A000A1632046FFF7A4FE206BC007ECD1206B6C
:1048B0008007E9D42068C16A21F00801C16284F848
:1048C0003450DEE7426B520410D54FF480418163CF
:1048D000266A002506EB8501206800F04EFF6D1C5E
:1048E000082DF7D3206A2030206270BD426B12047D
:1048F00010D54FF400418163A66A0025206800F0BE
:1049000029FF46F825006D1C082DF7D3A06A20303A
:10491000A06270BD426B40F23A231A42F9D0426B5A
:10492000920703D5A26B42F00202A263426B120708
:1049300003D5A26B42F00802A263426B920603D534
:10494000A26B42F02002A263426BD20603D5A26B97
:1049500042F01002A263426B920503D5A26B42F0B3
:104960000802A26340F2FF7282632068C26B8A432E
:10497000C263206B000623D5206C58B11549016530
:10498000206CFDF7BDFE0028C3D0206CBDE8704050
:1049900001F012BAE06B58B10F490165E06BFDF709
:1049A000AFFE0028B5D0E06BBDE8704001F0E0B983
:1049B0000020A06384F834502046FFF7DCFD70BD72
:1049C000206B0007FBD584F834502046FFF710FE1B
:1049D00070BD0000B95D0008715D000870B504008D
:1049E00004D094F83400002510B105E0012070BD1A
:1049F0002577204600F038F8032084F8340020465C
:104A000000F008F8A5632563012084F83400002035
:104A100070BD0000FEB50025044676200095CDE966
:104A200001502B462A462946206800F07DFE0D4E97
:104A300046F8A05F206800F089FE0125356002205D
:104A4000FDF7AAFF204601F0B8FA20B9204601F090
:104A500041FA002805D084F83450A16B0143A163CA
:104A60000120FEBD00802542F0B50068174987B0DF
:104A7000884229D116480024016841F40061016090
:104A80000068022500F4006005904FF4F850CDE96D
:104A9000000502AA03260C2782E8D00069460D48CB
:104AA000FEF72AF80420CDE9000502AA694682E84B
:104AB000D0000948FEF720F8002203213120FEF73C
:104AC000B7FB3120FEF7A8FB07B0F0BD002C01407A
:104AD0004438024000080240000C02402DE9F04F2B
:104AE00087B09A4617460E460446DDF840B0FEF7FA
:104AF000D1F800903EB194F83400012807D0A06BA3
:104B000040F000500FE0A06B40F000600BE04FF071
:104B10000008C4F83880E06D07EB0A01814204D92F
:104B2000A06B40F00070A0637DE0032084F83400A7
:104B30002068C0F82C80606C012800D07F024FF400
:104B40000071206800F052FE40F2FF59012530B19B
:104B50002268C2F83890A16B0143A16361E04FF075
:104B6000FF3001904FEA4A200290902003900220EB
:104B7000CDE90408069501A9206800F0B2FDBAF15C
:104B8000010F06D9022020633946206800F0BCFEE0
:104B900004E025633946206800F0CFFE0028D7D115
:104BA00040F22A382068416B11EA080F22D1406B8D
:104BB000000409D50027206800F0CCFD46F8270046
:104BC0007F1C082FF7D32036BBF1000F05D0FEF76E
:104BD00061F80099411A5945E4D32168C1F8389029
:104BE000A06B40F00040A06384F83450032007B06D
:104BF000BDE8F08F416BC90509D5BAF1010F06D99F
:104C0000616C032903D000F03FFF0028A0D1206889
:104C1000416B090709D5C0F83890A06B40F0080037
:104C200028E084F834500120E1E7416B890705D57D
:104C3000C0F83890A06B40F002001BE0416B890681
:104C40001AD5C0F83890A06B40F0200012E000BFE9
:104C500000F080FD01C6BBF1000F05D0FEF71AF889
:104C60000099411A594507D32168C1F83890A06BC3
:104C700040F00040A063D4E72068416B8902E7D48C
:104C80002168C1F8389084F834500020AFE77047AD
:104C9000704700002DE9F04F87B09A4616460D4642
:104CA0000446FDF7F7FF06903DB194F83400012863
:104CB00007D0A06B40F000500DE0A06B40F000600A
:104CC00009E00020A063E26D06EB0A01914204D9DD
:104CD000A06B40F00070A06390E0032184F83410D2
:104CE00021688146C862606C012800D076024FF4CA
:104CF0000071206800F07AFD40F2FF58012730B1C2
:104D00002268C2F83880A16B0143A16317E0BAF1B1
:104D1000010F06D9202020633146206800F0CEFE26
:104D200005E0102020633146206800F0E0FE060018
:104D300008D02168C1F83880A06B3043A06384F8A4
:104D400034705BE04FF0FF3000904FEA4A20019052
:104D5000902002904846CDE90407CDF80C90B94662
:104D60006946206800F0BDFC40F21A3B22E0406B2F
:104D700040040AD55FF0000705EB8701206800F0CA
:104D8000FCFC7F1C082FF7D32035109830B1FDF7BD
:104D900081FF0699411A109881420BD32168C1F80E
:104DA0003880A06B3043A06384F83490032007B0B0
:104DB000BDE8F08F2068416B11EA0B0FD7D0416B33
:104DC000C9050FD5BAF1010F0CD9616C032909D0BF
:104DD00000F05AFE30B12268C2F83880A16B01435E
:104DE000A16309E02068416B090709D5C0F8388044
:104DF000A06B40F0080014E084F834900120D6E75E
:104E0000416B890705D5C0F83880A06B40F00200DF
:104E100007E0416BC0F83880C90604D5A06B40F0AC
:104E20001000A063E8E784F834900020BFE770B575
:104E3000040005D00025A56294F8510010B106E0E9
:104E4000012070BD84F85050204600F031F8022057
:104E500084F851002068016821F040010160D4E924
:104E600001010843D4E9031211430843616908436F
:104E7000218B01F400710843E1690843216A08436A
:104E8000A16A084321680860A069042101EA104072
:104E9000616A0843216848602068C16921F40061A3
:104EA000C1616565012084F85100002070BD0000DB
:104EB00000B500680E4987B0884216D10D48002120
:104EC000026842F480520260006800F4805005904D
:104ED000E02000900220CDE901010320039005208D
:104EE000049069460448FDF707FE07B000BD0000C6
:104EF0000030014044380240000002404FF0E02101
:104F00000428086903D020F004000861704740F0CD
:104F10000400FAE710B50D4C6068401CC82190FBF6
:104F2000F1F2606001FB120008B901206070E068D6
:104F3000401CE0602069012803D102F0C7FE002078
:104F400020610348FDF72EFB608010BD100000209B
:104F50005004002010B5401EB0F1807F01D3012025
:104F600010BD4FF0E02460610F21601700F02CFBB2
:104F70000020A06107202061002010BD10B5FFF7C0
:104F8000C9FF10BD7047000070B502680446106884
:104F9000D168536910F00F0F50D003F0010501F4F0
:104FA000907635435DD0C20705D0CA0503D5E26BC4
:104FB00042F00102E263420705D5DA0703D0E26B53
:104FC00042F00202E263820705D5DA0703D0E26B02
:104FD00042F00402E263020705D5DA0703D0E26B70
:104FE00042F00802E263E26B002A33D0800604D567
:104FF000880602D5204601F029F920684069E16B56
:10500000C0F38010090700D428B3204601F010F93E
:105010002068416949061AD5416921F04001416182
:10502000606BA0B11B490165606BFDF769FB00284F
:1050300010D0606B016DBDE870400847830610D545
:105040008B060ED52046BDE8704001F0FFB8204623
:10505000FFF798FF70BD2046FFF794FF0020E06344
:1050600070BD030606D50B0604D52046BDE870408A
:1050700001F088BA4006F3D54806F1D5D16820463C
:1050800021F04001D160202184F8391000F095F81A
:1050900070BD00002162000870B5040004D094F8CF
:1050A0003900002510B106E0012070BD84F83850A9
:1050B000204600F023F8242084F839002068C168D5
:1050C00021F40051C160204601F006F92068016911
:1050D00021F4904101612068416921F02A01416178
:1050E0002068C16841F40051C160E563202084F864
:1050F000390084F83A00002070BD000070B5064603
:105100000068214986B088423BD1204800250168CB
:1051100041F0100101600068694600F01000059040
:105120004FF4C06000900220019001200290032003
:105130000390072004901648FDF7DEFC164C154836
:1051400020604FF0006060604020C4E9020500016B
:10515000C4E90405A561E561256220466562FDF7A5
:10516000B1FB20B14FF4CB710CA002F0CEFC346344
:10517000002211462520A663FEF75AF82520FEF7E7
:105180004BF806B070BD00000010014044380240EA
:1051900000000240B8640240A80900202E2E2F53C0
:1051A00072632F73746D3332663478785F68616C24
:1051B0005F6D73702E63000070477047FEE70168F3
:1051C0004A69D24352050CD46FF480624A610421CB
:1051D0000164002140F8301F202242730173012036
:1051E0007047002070472DE9F84F04460068894653
:1051F0000B9D01689846174641F480610160206864
:10520000016841F48071016000954FF0011A00229D
:10521000514620460A9B00F0D6F8F0BB216809F001
:10522000FE0008610AF1010B2B46594620460A9AF6
:1052300000F0FAF818B1206C042812D03AE0206887
:105240004169806900902A4620460A9900F061F978
:1052500050B1206C04282DD12068016841F4007100
:1052600001600120BDE8F88FFEB2B8F1010F09D04E
:105270002168380A08612A4620460A9900F049F94F
:105280000028E6D1206806612A4620460A9900F0E7
:1052900040F90028DDD1206800E00BE0016841F40E
:1052A0008071016000950022514620460A9B00F063
:1052B0008AF808B10320D5E7216809F0FF0040F023
:1052C000010008612B46594620460A9A00F0ACF8C6
:1052D0000028B0D1C6E700002DE9F8430446006875
:1052E0000D46DDE9089701689846164641F480713D
:1052F00001604B4600224FF001112046009700F05C
:1053000062F8E8B9216805F0FE0008613B464A46AC
:105310001849204600F088F828B1206C04280FD1E5
:105320000120BDE8F88320684169806900903A4611
:105330004946204600F0EDF820B1206C042813D037
:105340000320EEE7F5B2B8F1010F09D02168300A69
:1053500008613A464946204600F0DBF80028ECD1C7
:10536000206805610020DCE72068016841F40071D5
:105370000160D5E70200010070B516460D460446EF
:105380001AE02046FFF71BFF08B1012070BD681C22
:1053900012D025B1FDF77EFC801BA8420CD954F831
:1053A000400F40F0200044F8100900202060202128
:1053B00061732073032070BD20684069C0434007BB
:1053C000DFD4002070BD2DE9F0471E4690460D4603
:1053D0000446C1F30747DDF8209012E0701C10D09E
:1053E0002EB1FDF757FCA0EB0900B04209D900200F
:1053F00044F8300F20216173A07320730320BDE8AF
:10540000F0872068012F0AD0806925EA0000000497
:10541000000C06D000214145E0D00020EFE74069B4
:10542000F3E70121F7E700002DE9F0479A4691469E
:105430000D46044600264FF02008C1F307472AE036
:1054400020684069C043400512D42068016841F4D7
:105450000071016021686FF480604861042020645D
:10546000266384F83D8084F83C600120BDE8F08725
:10547000B9F1FF3F0FD0B9F1000F05D0FDF70AFCDD
:10548000A0EB0A01494506D944F8306F84F80D8035
:1054900026730320EAE72068012F07D0D0F8180010
:1054A00025EA00000004000CE0D0C9E74069F7E7F6
:1054B0002DE9F041002590460E460446202721E0C4
:1054C0004069C043C0060CD421686FF010004861E9
:1054D0002564256384F83D7084F83C500120BDE8C4
:1054E000F0812EB1FDF7D6FBA0EB0800B04209D940
:1054F00054F8400F40F0200044F80409677025700C
:105500000320ECE720684169C9434906D8D400204C
:10551000E5E770B516460D4604461AE02046FFF74B
:105520004EFE08B1012070BD681C12D025B1FDF7F8
:10553000B1FB801BA8420CD954F8400F40F020006A
:1055400044F810090020206020216173207303209B
:1055500070BD20684069C0430006DFD4002070BDE4
:1055600010B507490748FCF753FF05490122491EBA
:105570000870BDE81040491C034803F01FBF00003D
:105580000A00002078C600081C02002010B5002286
:105590000849094801F0A7FA0849074801F0A7FCA3
:1055A0000749054801F0E8F8BDE81040024801F05D
:1055B000EBBC000040000020080A0020AC010020E5
:1055C00074000020FEE770470907090E002806DA7C
:1055D00000F00F0000F1E02080F8141D704700F18A
:1055E000E02080F8001470470148FDF787BF0000F5
:1055F0002C0E00202DE9F84F0F46C1EBC70100EB40
:10560000810582460668D5E91301441A286C3835AD
:10561000A04200D20446E01C4FEA900806EB47196E
:1056200016E0441AA868A04200D20446E01C4FEAE3
:1056300090089AF810000090A3B2FAB23046E968D8
:1056400002F04EFAE8682044E860A8692044A861A6
:10565000D9F8180980B2404505D9D5E9050181423C
:1056600001D20028DDD134B90120D6F83418B84071
:105670008143C6F834180020BDE8F88F704701094F
:1056800001EB810100F00F0000EB4100C0B2704758
:10569000002102E00A38C0B2491C0A28FAD20907E0
:1056A00040EA11607047000070B504460068C168A8
:1056B000490614D44FF0FF31C160FDF7EBFA0546FF
:1056C0004FF47A7607E000BFFDF7E4FA401BB042E2
:1056D00001D9032070BD2068C0684006F4D50020C1
:1056E00070BD0A6842624A688262D1E902231A43A5
:1056F000D1E904310B43C16A1A4321F0F701114388
:10570000C16200207047006800F00300704708B5D0
:10571000084414300090006808BD00000148FFF7FD
:105720007DB800000C05002070B50DF1100C114380
:105730009CE870002343194329434268314347F6EC
:10574000FF639A430A434260002070BD0321016059
:1057500000207047D0F8800070470A688260D1E965
:1057600001231A43D1E903310B43C1681A436FF394
:105770000B011143C160002070470968C0F8801018
:105780000020704710B586B004463720CDE90010E0
:1057900040200290002003904FF4806004906946FE
:1057A0002046FFF7DAFF41F288323721204600F029
:1057B000B7F906B010BD000010B504460A4886B01F
:1057C00001432920CDE900104020029000200390E1
:1057D0004FF48060049069462046FFF7BEFF2046E4
:1057E00000F054FA06B010BD0000108010B586B06D
:1057F00004461020CDE900104020029000200390C4
:105800004FF48060049069462046FFF7A6FF41F2FE
:1058100088321021204600F083F906B010BD10B583
:1058200086B004460620CDE90010402002900020FA
:1058300003904FF48060049069462046FFF78DFF87
:1058400041F288320621204600F06AF906B010BD08
:1058500030B585B000240546009401944FF4806073
:105860000294CDE9034069462846FFF776FF0B48CE
:105870004FF4FA510068B0FBF1F041F2883148432F
:10588000401E03D24FF0004005B030BD696B0906E1
:10589000F6D540F2FF50A8632046F5E784000020CB
:1058A00070B585B004464FF4D570009008204026AE
:1058B000CDE901060025C001CDE903506946204627
:1058C000FFF74BFF0F484FF4FA510068B0FBF1F0BF
:1058D00041F288314843401E02D24FF000450DE0AE
:1058E000616B11F0450FF6D0606B400702D5A663DF
:1058F000042503E0606B400600D5A66305B028468A
:1059000070BD00008400002010B586B0044612204F
:10591000CDE9001040200290002003904FF48060F9
:10592000049069462046FFF718FF41F288321221A1
:10593000204600F0F5F806B010BD10B586B004465C
:105940001120CDE9001040200290002003904FF478
:105950008060049069462046FFF7FFFE41F28832DE
:105960001121204600F0DCF806B010BD10B586B05D
:1059700004460720CDE9002040200290002003903B
:105980004FF48060049069462046FFF7E6FE41F23E
:1059900088320721204600F0C3F806B010BD10B5CC
:1059A00086B0044600210220CDE90010C020CDE9D8
:1059B00002014FF48060049069462046FFF7CDFE57
:1059C000204600F03BF906B010BD10B586B0044685
:1059D0000920CDE90010C0200290002003904FF470
:1059E0008060049069462046FFF7B7FE204600F02D
:1059F00025F906B010BD10B586B00446002133204D
:105A0000CDE900104020CDE9020100010490694673
:105A10002046FFF7A2FE41F288323321204600F0F3
:105A20007FF806B010BD10B586B004460D20CDE954
:105A3000001040200290002003904FF480600490FA
:105A400069462046FFF789FE41F288320D21204643
:105A500000F066F806B010BD30B585B00C460546BE
:105A600000210320CDE900104020CDE90201000112
:105A7000049069462846FFF770FE22460321284617
:105A800000F024F905B030BD10B586B00446002101
:105A90000C20CDE900104020CDE902010001049066
:105AA00069462046FFF759FE034A0C21204600F0C4
:105AB00037F806B010BD000000E1F50510B586B05E
:105AC00004461920CDE900104020029000200390E8
:105AD0004FF48060049069462046FFF73EFE41F295
